{
  "_format": "hh-sol-artifact-1",
  "contractName": "FiberRouter",
  "sourceName": "contracts/upgradeable-Bridge/FiberRouter.sol",
  "abi": [
    {
      "anonymous": false,
      "inputs": [
        {
          "indexed": false,
          "internalType": "uint8",
          "name": "version",
          "type": "uint8"
        }
      ],
      "name": "Initialized",
      "type": "event"
    },
    {
      "anonymous": false,
      "inputs": [
        {
          "indexed": false,
          "internalType": "address",
          "name": "sourceToken",
          "type": "address"
        },
        {
          "indexed": false,
          "internalType": "string",
          "name": "targetToken",
          "type": "string"
        },
        {
          "indexed": false,
          "internalType": "uint256",
          "name": "sourceChainId",
          "type": "uint256"
        },
        {
          "indexed": false,
          "internalType": "string",
          "name": "targetChainId",
          "type": "string"
        },
        {
          "indexed": false,
          "internalType": "uint256",
          "name": "sourceAmount",
          "type": "uint256"
        },
        {
          "indexed": false,
          "internalType": "address",
          "name": "sourceAddress",
          "type": "address"
        },
        {
          "indexed": false,
          "internalType": "string",
          "name": "targetAddress",
          "type": "string"
        }
      ],
      "name": "NonEvmSwap",
      "type": "event"
    },
    {
      "anonymous": false,
      "inputs": [
        {
          "indexed": true,
          "internalType": "address",
          "name": "previousOwner",
          "type": "address"
        },
        {
          "indexed": true,
          "internalType": "address",
          "name": "newOwner",
          "type": "address"
        }
      ],
      "name": "OwnershipTransferred",
      "type": "event"
    },
    {
      "anonymous": false,
      "inputs": [
        {
          "indexed": false,
          "internalType": "address",
          "name": "sourceToken",
          "type": "address"
        },
        {
          "indexed": false,
          "internalType": "address",
          "name": "targetToken",
          "type": "address"
        },
        {
          "indexed": false,
          "internalType": "uint256",
          "name": "sourceChainId",
          "type": "uint256"
        },
        {
          "indexed": false,
          "internalType": "uint256",
          "name": "targetChainId",
          "type": "uint256"
        },
        {
          "indexed": false,
          "internalType": "uint256",
          "name": "sourceAmount",
          "type": "uint256"
        },
        {
          "indexed": false,
          "internalType": "address",
          "name": "sourceAddress",
          "type": "address"
        },
        {
          "indexed": false,
          "internalType": "address",
          "name": "targetAddress",
          "type": "address"
        }
      ],
      "name": "Swap",
      "type": "event"
    },
    {
      "anonymous": false,
      "inputs": [
        {
          "indexed": false,
          "internalType": "address",
          "name": "token",
          "type": "address"
        },
        {
          "indexed": false,
          "internalType": "address",
          "name": "receiver",
          "type": "address"
        },
        {
          "indexed": false,
          "internalType": "uint256",
          "name": "amount",
          "type": "uint256"
        },
        {
          "indexed": false,
          "internalType": "bytes32",
          "name": "salt",
          "type": "bytes32"
        },
        {
          "indexed": false,
          "internalType": "bytes",
          "name": "signature",
          "type": "bytes"
        }
      ],
      "name": "Withdraw",
      "type": "event"
    },
    {
      "inputs": [
        {
          "internalType": "address",
          "name": "_token",
          "type": "address"
        }
      ],
      "name": "getFoundryTokenPrice",
      "outputs": [
        {
          "internalType": "uint256",
          "name": "",
          "type": "uint256"
        }
      ],
      "stateMutability": "view",
      "type": "function"
    },
    {
      "inputs": [],
      "name": "initialize",
      "outputs": [],
      "stateMutability": "nonpayable",
      "type": "function"
    },
    {
      "inputs": [
        {
          "internalType": "address",
          "name": "token",
          "type": "address"
        },
        {
          "internalType": "uint256",
          "name": "amount",
          "type": "uint256"
        },
        {
          "internalType": "string",
          "name": "targetNetwork",
          "type": "string"
        },
        {
          "internalType": "string",
          "name": "targetToken",
          "type": "string"
        },
        {
          "internalType": "string",
          "name": "targetAddress",
          "type": "string"
        }
      ],
      "name": "nonEvmSwap",
      "outputs": [],
      "stateMutability": "nonpayable",
      "type": "function"
    },
    {
      "inputs": [
        {
          "internalType": "address",
          "name": "swapRouter",
          "type": "address"
        },
        {
          "internalType": "uint256",
          "name": "amountIn",
          "type": "uint256"
        },
        {
          "internalType": "uint256",
          "name": "amountCrossMin",
          "type": "uint256"
        },
        {
          "internalType": "address[]",
          "name": "path",
          "type": "address[]"
        },
        {
          "internalType": "uint256",
          "name": "deadline",
          "type": "uint256"
        },
        {
          "internalType": "string",
          "name": "crossTargetNetwork",
          "type": "string"
        },
        {
          "internalType": "string",
          "name": "crossTargetToken",
          "type": "string"
        },
        {
          "internalType": "string",
          "name": "crossTargetAddress",
          "type": "string"
        }
      ],
      "name": "nonEvmSwapAndCross",
      "outputs": [],
      "stateMutability": "nonpayable",
      "type": "function"
    },
    {
      "inputs": [],
      "name": "owner",
      "outputs": [
        {
          "internalType": "address",
          "name": "",
          "type": "address"
        }
      ],
      "stateMutability": "view",
      "type": "function"
    },
    {
      "inputs": [],
      "name": "pool",
      "outputs": [
        {
          "internalType": "address",
          "name": "",
          "type": "address"
        }
      ],
      "stateMutability": "view",
      "type": "function"
    },
    {
      "inputs": [
        {
          "internalType": "address",
          "name": "",
          "type": "address"
        }
      ],
      "name": "priceFeed",
      "outputs": [
        {
          "internalType": "contract AggregatorV3Interface",
          "name": "",
          "type": "address"
        }
      ],
      "stateMutability": "view",
      "type": "function"
    },
    {
      "inputs": [],
      "name": "renounceOwnership",
      "outputs": [],
      "stateMutability": "nonpayable",
      "type": "function"
    },
    {
      "inputs": [
        {
          "internalType": "address",
          "name": "_token",
          "type": "address"
        },
        {
          "internalType": "contract AggregatorV3Interface",
          "name": "_oracleAddress",
          "type": "address"
        }
      ],
      "name": "setOracle",
      "outputs": [],
      "stateMutability": "nonpayable",
      "type": "function"
    },
    {
      "inputs": [
        {
          "internalType": "address",
          "name": "_pool",
          "type": "address"
        }
      ],
      "name": "setPool",
      "outputs": [],
      "stateMutability": "nonpayable",
      "type": "function"
    },
    {
      "inputs": [
        {
          "internalType": "address",
          "name": "token",
          "type": "address"
        },
        {
          "internalType": "uint256",
          "name": "amount",
          "type": "uint256"
        },
        {
          "internalType": "uint256",
          "name": "targetNetwork",
          "type": "uint256"
        },
        {
          "internalType": "address",
          "name": "targetToken",
          "type": "address"
        },
        {
          "internalType": "address",
          "name": "targetAddress",
          "type": "address"
        }
      ],
      "name": "swap",
      "outputs": [],
      "stateMutability": "nonpayable",
      "type": "function"
    },
    {
      "inputs": [
        {
          "internalType": "address",
          "name": "swapRouter",
          "type": "address"
        },
        {
          "internalType": "uint256",
          "name": "amountIn",
          "type": "uint256"
        },
        {
          "internalType": "uint256",
          "name": "amountCrossMin",
          "type": "uint256"
        },
        {
          "internalType": "address[]",
          "name": "path",
          "type": "address[]"
        },
        {
          "internalType": "uint256",
          "name": "deadline",
          "type": "uint256"
        },
        {
          "internalType": "uint256",
          "name": "crossTargetNetwork",
          "type": "uint256"
        },
        {
          "internalType": "address",
          "name": "crossTargetToken",
          "type": "address"
        },
        {
          "internalType": "address",
          "name": "crossTargetAddress",
          "type": "address"
        }
      ],
      "name": "swapAndCross",
      "outputs": [],
      "stateMutability": "nonpayable",
      "type": "function"
    },
    {
      "inputs": [
        {
          "internalType": "address",
          "name": "swapRouter",
          "type": "address"
        },
        {
          "internalType": "uint256",
          "name": "amountCrossMin",
          "type": "uint256"
        },
        {
          "internalType": "address[]",
          "name": "path",
          "type": "address[]"
        },
        {
          "internalType": "uint256",
          "name": "deadline",
          "type": "uint256"
        },
        {
          "internalType": "uint256",
          "name": "crossTargetNetwork",
          "type": "uint256"
        },
        {
          "internalType": "address",
          "name": "crossTargetToken",
          "type": "address"
        },
        {
          "internalType": "address",
          "name": "crossTargetAddress",
          "type": "address"
        }
      ],
      "name": "swapAndCrossETH",
      "outputs": [],
      "stateMutability": "payable",
      "type": "function"
    },
    {
      "inputs": [
        {
          "internalType": "address",
          "name": "newOwner",
          "type": "address"
        }
      ],
      "name": "transferOwnership",
      "outputs": [],
      "stateMutability": "nonpayable",
      "type": "function"
    },
    {
      "inputs": [
        {
          "internalType": "address",
          "name": "token",
          "type": "address"
        },
        {
          "internalType": "address",
          "name": "payee",
          "type": "address"
        },
        {
          "internalType": "uint256",
          "name": "amount",
          "type": "uint256"
        },
        {
          "internalType": "bytes32",
          "name": "salt",
          "type": "bytes32"
        },
        {
          "internalType": "bytes",
          "name": "multiSignature",
          "type": "bytes"
        }
      ],
      "name": "withdrawSigned",
      "outputs": [],
      "stateMutability": "nonpayable",
      "type": "function"
    },
    {
      "inputs": [
        {
          "internalType": "address",
          "name": "to",
          "type": "address"
        },
        {
          "internalType": "address",
          "name": "swapRouter",
          "type": "address"
        },
        {
          "internalType": "uint256",
          "name": "amountIn",
          "type": "uint256"
        },
        {
          "internalType": "uint256",
          "name": "amountOutMin",
          "type": "uint256"
        },
        {
          "internalType": "address[]",
          "name": "path",
          "type": "address[]"
        },
        {
          "internalType": "uint256",
          "name": "deadline",
          "type": "uint256"
        },
        {
          "internalType": "bytes32",
          "name": "salt",
          "type": "bytes32"
        },
        {
          "internalType": "bytes",
          "name": "multiSignature",
          "type": "bytes"
        }
      ],
      "name": "withdrawSignedAndSwap",
      "outputs": [],
      "stateMutability": "nonpayable",
      "type": "function"
    },
    {
      "inputs": [
        {
          "internalType": "address",
          "name": "to",
          "type": "address"
        },
        {
          "internalType": "address",
          "name": "swapRouter",
          "type": "address"
        },
        {
          "internalType": "uint256",
          "name": "amountIn",
          "type": "uint256"
        },
        {
          "internalType": "uint256",
          "name": "amountOutMin",
          "type": "uint256"
        },
        {
          "internalType": "address[]",
          "name": "path",
          "type": "address[]"
        },
        {
          "internalType": "uint256",
          "name": "deadline",
          "type": "uint256"
        },
        {
          "internalType": "bytes32",
          "name": "salt",
          "type": "bytes32"
        },
        {
          "internalType": "bytes",
          "name": "multiSignature",
          "type": "bytes"
        }
      ],
      "name": "withdrawSignedAndSwapETH",
      "outputs": [],
      "stateMutability": "nonpayable",
      "type": "function"
    },
    {
      "inputs": [
        {
          "internalType": "address",
          "name": "bridgeFoundry",
          "type": "address"
        },
        {
          "internalType": "address",
          "name": "targetFoundry",
          "type": "address"
        },
        {
          "internalType": "address",
          "name": "payee",
          "type": "address"
        },
        {
          "internalType": "uint256",
          "name": "amount",
          "type": "uint256"
        },
        {
          "internalType": "bytes32",
          "name": "salt",
          "type": "bytes32"
        },
        {
          "internalType": "bytes",
          "name": "multiSignature",
          "type": "bytes"
        }
      ],
      "name": "withdrawSignedAndSwapToFoundry",
      "outputs": [],
      "stateMutability": "nonpayable",
      "type": "function"
    },
    {
      "stateMutability": "payable",
      "type": "receive"
    }
  ],
  "bytecode": "0x608060405234801561001057600080fd5b5061425d806100206000396000f3fe60806040526004361061010d5760003560e01c80637c8042f4116100955780638da5cb5b116100645780638da5cb5b146103275780639f240e7d14610352578063a81cb92e1461037b578063bdb519b4146103a4578063f2fde38b146103cd57610114565b80637c8042f4146102955780638129fc1c146102be5780638909d733146102d55780638d6e9291146102fe57610114565b80634437152a116100dc5780634437152a146101e7578063473b4099146102105780635c38eb3a1461022c578063715018a61461025557806373050a8a1461026c57610114565b80630efe792d1461011957806316f0115b146101565780631fd48b9a146101815780633364a4e5146101be57610114565b3661011457005b600080fd5b34801561012557600080fd5b50610140600480360381019061013b9190612abc565b6103f6565b60405161014d9190613928565b60405180910390f35b34801561016257600080fd5b5061016b6105ea565b604051610178919061350d565b60405180910390f35b34801561018d57600080fd5b506101a860048036038101906101a39190612abc565b610610565b6040516101b59190613790565b60405180910390f35b3480156101ca57600080fd5b506101e560048036038101906101e09190612c3e565b610643565b005b3480156101f357600080fd5b5061020e60048036038101906102099190612abc565b610a5d565b005b61022a60048036038101906102259190612d60565b610aa9565b005b34801561023857600080fd5b50610253600480360381019061024e9190612d24565b610ce4565b005b34801561026157600080fd5b5061026a610d6e565b005b34801561027857600080fd5b50610293600480360381019061028e9190612e1a565b610d82565b005b3480156102a157600080fd5b506102bc60048036038101906102b79190613066565b610f66565b005b3480156102ca57600080fd5b506102d3611162565b005b3480156102e157600080fd5b506102fc60048036038101906102f79190612f50565b6112a8565b005b34801561030a57600080fd5b5061032560048036038101906103209190612baf565b6114a4565b005b34801561033357600080fd5b5061033c6115a0565b604051610349919061350d565b60405180910390f35b34801561035e57600080fd5b5061037960048036038101906103749190612c3e565b6115ca565b005b34801561038757600080fd5b506103a2600480360381019061039d9190612ed9565b6118c2565b005b3480156103b057600080fd5b506103cb60048036038101906103c69190612b0e565b611aa6565b005b3480156103d957600080fd5b506103f460048036038101906103ef9190612abc565b611beb565b005b600080609860008473ffffffffffffffffffffffffffffffffffffffff1673ffffffffffffffffffffffffffffffffffffffff16815260200190815260200160002060009054906101000a900473ffffffffffffffffffffffffffffffffffffffff1673ffffffffffffffffffffffffffffffffffffffff1663feaf968c6040518163ffffffff1660e01b815260040160a06040518083038186803b15801561049e57600080fd5b505afa1580156104b2573d6000803e3d6000fd5b505050506040513d601f19601f820116820180604052508101906104d69190613186565b5050509150506000609860008573ffffffffffffffffffffffffffffffffffffffff1673ffffffffffffffffffffffffffffffffffffffff16815260200190815260200160002060009054906101000a900473ffffffffffffffffffffffffffffffffffffffff1673ffffffffffffffffffffffffffffffffffffffff1663313ce5676040518163ffffffff1660e01b815260040160206040518083038186803b15801561058357600080fd5b505afa158015610597573d6000803e3d6000fd5b505050506040513d601f19601f820116820180604052508101906105bb91906131fd565b90508060126105ca9190613cd8565b600a6105d69190613b2c565b826105e19190613c4a565b92505050919050565b609760009054906101000a900473ffffffffffffffffffffffffffffffffffffffff1681565b60986020528060005260406000206000915054906101000a900473ffffffffffffffffffffffffffffffffffffffff1681565b60018585905011610689576040517f08c379a0000000000000000000000000000000000000000000000000000000008152600401610680906138c8565b60405180910390fd5b609760009054906101000a900473ffffffffffffffffffffffffffffffffffffffff1673ffffffffffffffffffffffffffffffffffffffff16638d6e929186866000818110610701577f4e487b7100000000000000000000000000000000000000000000000000000000600052603260045260246000fd5b90506020020160208101906107169190612abc565b308a86866040518663ffffffff1660e01b815260040161073a95949392919061355f565b602060405180830381600087803b15801561075457600080fd5b505af1158015610768573d6000803e3d6000fd5b505050506040513d601f19601f8201168201806040525081019061078c919061315d565b50848460008181106107c7577f4e487b7100000000000000000000000000000000000000000000000000000000600052603260045260246000fd5b90506020020160208101906107dc9190612abc565b73ffffffffffffffffffffffffffffffffffffffff166370a08231306040518263ffffffff1660e01b8152600401610814919061350d565b60206040518083038186803b15801561082c57600080fd5b505afa158015610840573d6000803e3d6000fd5b505050506040513d601f19601f82011682018060405250810190610864919061315d565b9650848460008181106108a0577f4e487b7100000000000000000000000000000000000000000000000000000000600052603260045260246000fd5b90506020020160208101906108b59190612abc565b73ffffffffffffffffffffffffffffffffffffffff1663095ea7b389896040518363ffffffff1660e01b81526004016108ef9291906136ac565b602060405180830381600087803b15801561090957600080fd5b505af115801561091d573d6000803e3d6000fd5b505050506040513d601f19601f820116820180604052508101906109419190613134565b508773ffffffffffffffffffffffffffffffffffffffff16635c11d795888888888e896040518763ffffffff1660e01b815260040161098596959493929190613943565b600060405180830381600087803b15801561099f57600080fd5b505af11580156109b3573d6000803e3d6000fd5b505050507fddc564cdf1d96bd777ab33f08c46f9281c10a4caf7fd7f841bbfc4a85d55064085856001888890506109ea9190613ca4565b818110610a20577f4e487b7100000000000000000000000000000000000000000000000000000000600052603260045260246000fd5b9050602002016020810190610a359190612abc565b8a888585604051610a4a95949392919061355f565b60405180910390a1505050505050505050565b610a65611c6f565b80609760006101000a81548173ffffffffffffffffffffffffffffffffffffffff021916908373ffffffffffffffffffffffffffffffffffffffff16021790555050565b610ab1611ced565b600034905060008973ffffffffffffffffffffffffffffffffffffffff1663ad5c46486040518163ffffffff1660e01b815260040160206040518083038186803b158015610afe57600080fd5b505afa158015610b12573d6000803e3d6000fd5b505050506040513d601f19601f82011682018060405250810190610b369190612ae5565b90508073ffffffffffffffffffffffffffffffffffffffff1663095ea7b38b846040518363ffffffff1660e01b8152600401610b739291906136ac565b602060405180830381600087803b158015610b8d57600080fd5b505af1158015610ba1573d6000803e3d6000fd5b505050506040513d601f19601f82011682018060405250810190610bc59190613134565b508073ffffffffffffffffffffffffffffffffffffffff1663d0e30db0836040518263ffffffff1660e01b81526004016000604051808303818588803b158015610c0e57600080fd5b505af1158015610c22573d6000803e3d6000fd5b5050505050610c38338b848c8c8c8c8c8c611d3d565b7f36ae4b8940731f7c85b7db5bd11f85e01c730875f98d40504a8ae214393ca58d88886000818110610c93577f4e487b7100000000000000000000000000000000000000000000000000000000600052603260045260246000fd5b9050602002016020810190610ca89190612abc565b85468886610cb4611f85565b89604051610cc897969594939291906135b9565b60405180910390a15050610cda611f8d565b5050505050505050565b610cec611c6f565b80609860008473ffffffffffffffffffffffffffffffffffffffff1673ffffffffffffffffffffffffffffffffffffffff16815260200190815260200160002060006101000a81548173ffffffffffffffffffffffffffffffffffffffff021916908373ffffffffffffffffffffffffffffffffffffffff1602179055505050565b610d76611c6f565b610d806000611f96565b565b610daf3330868873ffffffffffffffffffffffffffffffffffffffff1661205c909392919063ffffffff16565b8473ffffffffffffffffffffffffffffffffffffffff1663095ea7b3609760009054906101000a900473ffffffffffffffffffffffffffffffffffffffff16866040518363ffffffff1660e01b8152600401610e0c9291906136ac565b602060405180830381600087803b158015610e2657600080fd5b505af1158015610e3a573d6000803e3d6000fd5b505050506040513d601f19601f82011682018060405250810190610e5e9190613134565b50609760009054906101000a900473ffffffffffffffffffffffffffffffffffffffff1673ffffffffffffffffffffffffffffffffffffffff1663ad93428386868686866040518663ffffffff1660e01b8152600401610ec29594939291906136d5565b602060405180830381600087803b158015610edc57600080fd5b505af1158015610ef0573d6000803e3d6000fd5b505050506040513d601f19601f82011682018060405250810190610f14919061315d565b507fd4ae853fa41178d463a3b92f087a90e2c0f4716a4118223157c78cef74d8c1cc8583468688610f43611f85565b87604051610f579796959493929190613628565b60405180910390a15050505050565b610f6e611ced565b610fc886866000818110610fab577f4e487b7100000000000000000000000000000000000000000000000000000000600052603260045260246000fd5b9050602002016020810190610fc09190612abc565b33308b6120e5565b975085856000818110611004577f4e487b7100000000000000000000000000000000000000000000000000000000600052603260045260246000fd5b90506020020160208101906110199190612abc565b73ffffffffffffffffffffffffffffffffffffffff1663095ea7b38a8a6040518363ffffffff1660e01b81526004016110539291906136ac565b602060405180830381600087803b15801561106d57600080fd5b505af1158015611081573d6000803e3d6000fd5b505050506040513d601f19601f820116820180604052508101906110a59190613134565b506110b7338a8a8a8a8a8a8a8a611d3d565b7f36ae4b8940731f7c85b7db5bd11f85e01c730875f98d40504a8ae214393ca58d86866000818110611112577f4e487b7100000000000000000000000000000000000000000000000000000000600052603260045260246000fd5b90506020020160208101906111279190612abc565b8346868c611133611f85565b8760405161114797969594939291906135b9565b60405180910390a1611157611f8d565b505050505050505050565b60008060019054906101000a900460ff161590508080156111935750600160008054906101000a900460ff1660ff16105b806111c057506111a230612288565b1580156111bf5750600160008054906101000a900460ff1660ff16145b5b6111ff576040517f08c379a00000000000000000000000000000000000000000000000000000000081526004016111f690613848565b60405180910390fd5b60016000806101000a81548160ff021916908360ff160217905550801561123c576001600060016101000a81548160ff0219169083151502179055505b6112446122ab565b61124c612304565b80156112a55760008060016101000a81548160ff0219169083151502179055507f7f26b83ff96e1f2b6a682f133852f6798a09c465da95921460cefb3847402498600160405161129c91906137ab565b60405180910390a15b50565b6112b0611ced565b61130a868660008181106112ed577f4e487b7100000000000000000000000000000000000000000000000000000000600052603260045260246000fd5b90506020020160208101906113029190612abc565b33308b6120e5565b975085856000818110611346577f4e487b7100000000000000000000000000000000000000000000000000000000600052603260045260246000fd5b905060200201602081019061135b9190612abc565b73ffffffffffffffffffffffffffffffffffffffff1663095ea7b38a8a6040518363ffffffff1660e01b81526004016113959291906136ac565b602060405180830381600087803b1580156113af57600080fd5b505af11580156113c3573d6000803e3d6000fd5b505050506040513d601f19601f820116820180604052508101906113e79190613134565b506113f9818a8a8a8a8a8a8a8a61235d565b7fd4ae853fa41178d463a3b92f087a90e2c0f4716a4118223157c78cef74d8c1cc86866000818110611454577f4e487b7100000000000000000000000000000000000000000000000000000000600052603260045260246000fd5b90506020020160208101906114699190612abc565b8346868c611475611f85565b876040516114899796959493929190613628565b60405180910390a1611499611f8d565b505050505050505050565b609760009054906101000a900473ffffffffffffffffffffffffffffffffffffffff1673ffffffffffffffffffffffffffffffffffffffff16638d6e929186868686866040518663ffffffff1660e01b815260040161150795949392919061355f565b602060405180830381600087803b15801561152157600080fd5b505af1158015611535573d6000803e3d6000fd5b505050506040513d601f19601f82011682018060405250810190611559919061315d565b507fddc564cdf1d96bd777ab33f08c46f9281c10a4caf7fd7f841bbfc4a85d550640858585858560405161159195949392919061355f565b60405180910390a15050505050565b6000606560009054906101000a900473ffffffffffffffffffffffffffffffffffffffff16905090565b609760009054906101000a900473ffffffffffffffffffffffffffffffffffffffff1673ffffffffffffffffffffffffffffffffffffffff16638d6e929186866000818110611642577f4e487b7100000000000000000000000000000000000000000000000000000000600052603260045260246000fd5b90506020020160208101906116579190612abc565b308a86866040518663ffffffff1660e01b815260040161167b95949392919061355f565b602060405180830381600087803b15801561169557600080fd5b505af11580156116a9573d6000803e3d6000fd5b505050506040513d601f19601f820116820180604052508101906116cd919061315d565b5084846000818110611708577f4e487b7100000000000000000000000000000000000000000000000000000000600052603260045260246000fd5b905060200201602081019061171d9190612abc565b73ffffffffffffffffffffffffffffffffffffffff166370a08231306040518263ffffffff1660e01b8152600401611755919061350d565b60206040518083038186803b15801561176d57600080fd5b505afa158015611781573d6000803e3d6000fd5b505050506040513d601f19601f820116820180604052508101906117a5919061315d565b96508773ffffffffffffffffffffffffffffffffffffffff1663791ac947888888888e896040518763ffffffff1660e01b81526004016117ea96959493929190613943565b600060405180830381600087803b15801561180457600080fd5b505af1158015611818573d6000803e3d6000fd5b505050507fddc564cdf1d96bd777ab33f08c46f9281c10a4caf7fd7f841bbfc4a85d550640858560018888905061184f9190613ca4565b818110611885577f4e487b7100000000000000000000000000000000000000000000000000000000600052603260045260246000fd5b905060200201602081019061189a9190612abc565b8a8885856040516118af95949392919061355f565b60405180910390a1505050505050505050565b6118ef3330868873ffffffffffffffffffffffffffffffffffffffff1661205c909392919063ffffffff16565b8473ffffffffffffffffffffffffffffffffffffffff1663095ea7b3609760009054906101000a900473ffffffffffffffffffffffffffffffffffffffff16866040518363ffffffff1660e01b815260040161194c9291906136ac565b602060405180830381600087803b15801561196657600080fd5b505af115801561197a573d6000803e3d6000fd5b505050506040513d601f19601f8201168201806040525081019061199e9190613134565b50609760009054906101000a900473ffffffffffffffffffffffffffffffffffffffff1673ffffffffffffffffffffffffffffffffffffffff166352f9567d86868686866040518663ffffffff1660e01b8152600401611a0295949392919061373d565b602060405180830381600087803b158015611a1c57600080fd5b505af1158015611a30573d6000803e3d6000fd5b505050506040513d601f19601f82011682018060405250810190611a54919061315d565b507f36ae4b8940731f7c85b7db5bd11f85e01c730875f98d40504a8ae214393ca58d8583468688611a83611f85565b87604051611a9797969594939291906135b9565b60405180910390a15050505050565b611aae611ced565b6000611ab9876103f6565b90506000611ac6876103f6565b90506000818387611ad79190613c4a565b611ae19190613aa8565b9050609760009054906101000a900473ffffffffffffffffffffffffffffffffffffffff1673ffffffffffffffffffffffffffffffffffffffff16638d6e929189898489896040518663ffffffff1660e01b8152600401611b4695949392919061355f565b602060405180830381600087803b158015611b6057600080fd5b505af1158015611b74573d6000803e3d6000fd5b505050506040513d601f19601f82011682018060405250810190611b98919061315d565b507fddc564cdf1d96bd777ab33f08c46f9281c10a4caf7fd7f841bbfc4a85d5506408888888888604051611bd095949392919061355f565b60405180910390a1505050611be3611f8d565b505050505050565b611bf3611c6f565b600073ffffffffffffffffffffffffffffffffffffffff168173ffffffffffffffffffffffffffffffffffffffff161415611c63576040517f08c379a0000000000000000000000000000000000000000000000000000000008152600401611c5a906137e8565b60405180910390fd5b611c6c81611f96565b50565b611c77611f85565b73ffffffffffffffffffffffffffffffffffffffff16611c956115a0565b73ffffffffffffffffffffffffffffffffffffffff1614611ceb576040517f08c379a0000000000000000000000000000000000000000000000000000000008152600401611ce290613868565b60405180910390fd5b565b60026001541415611d33576040517f08c379a0000000000000000000000000000000000000000000000000000000008152600401611d2a90613908565b60405180910390fd5b6002600181905550565b8773ffffffffffffffffffffffffffffffffffffffff16635c11d7958888888830896040518763ffffffff1660e01b8152600401611d8096959493929190613943565b600060405180830381600087803b158015611d9a57600080fd5b505af1158015611dae573d6000803e3d6000fd5b5050505060008585600188889050611dc69190613ca4565b818110611dfc577f4e487b7100000000000000000000000000000000000000000000000000000000600052603260045260246000fd5b9050602002016020810190611e119190612abc565b90508073ffffffffffffffffffffffffffffffffffffffff1663095ea7b3609760009054906101000a900473ffffffffffffffffffffffffffffffffffffffff16896040518363ffffffff1660e01b8152600401611e709291906136ac565b602060405180830381600087803b158015611e8a57600080fd5b505af1158015611e9e573d6000803e3d6000fd5b505050506040513d601f19601f82011682018060405250810190611ec29190613134565b50609760009054906101000a900473ffffffffffffffffffffffffffffffffffffffff1673ffffffffffffffffffffffffffffffffffffffff166352f9567d828986868f6040518663ffffffff1660e01b8152600401611f2695949392919061373d565b602060405180830381600087803b158015611f4057600080fd5b505af1158015611f54573d6000803e3d6000fd5b505050506040513d601f19601f82011682018060405250810190611f78919061315d565b5050505050505050505050565b600033905090565b60018081905550565b6000606560009054906101000a900473ffffffffffffffffffffffffffffffffffffffff16905081606560006101000a81548173ffffffffffffffffffffffffffffffffffffffff021916908373ffffffffffffffffffffffffffffffffffffffff1602179055508173ffffffffffffffffffffffffffffffffffffffff168173ffffffffffffffffffffffffffffffffffffffff167f8be0079c531659141344cd1fd0a4f28419497f9722a3daafe3b4186f6b6457e060405160405180910390a35050565b6120df846323b872dd60e01b85858560405160240161207d93929190613528565b604051602081830303815290604052907bffffffffffffffffffffffffffffffffffffffffffffffffffffffff19166020820180517bffffffffffffffffffffffffffffffffffffffffffffffffffffffff83818316178352505050506125a5565b50505050565b6000808573ffffffffffffffffffffffffffffffffffffffff166370a08231856040518263ffffffff1660e01b8152600401612121919061350d565b60206040518083038186803b15801561213957600080fd5b505afa15801561214d573d6000803e3d6000fd5b505050506040513d601f19601f82011682018060405250810190612171919061315d565b90506121a08585858973ffffffffffffffffffffffffffffffffffffffff1661205c909392919063ffffffff16565b60008673ffffffffffffffffffffffffffffffffffffffff166370a08231866040518263ffffffff1660e01b81526004016121db919061350d565b60206040518083038186803b1580156121f357600080fd5b505afa158015612207573d6000803e3d6000fd5b505050506040513d601f19601f8201168201806040525081019061222b919061315d565b905081816122399190613ca4565b92508383111561227e576040517f08c379a000000000000000000000000000000000000000000000000000000000815260040161227590613808565b60405180910390fd5b5050949350505050565b6000808273ffffffffffffffffffffffffffffffffffffffff163b119050919050565b600060019054906101000a900460ff166122fa576040517f08c379a00000000000000000000000000000000000000000000000000000000081526004016122f1906138a8565b60405180910390fd5b61230261266c565b565b600060019054906101000a900460ff16612353576040517f08c379a000000000000000000000000000000000000000000000000000000000815260040161234a906138a8565b60405180910390fd5b61235b6126cd565b565b8773ffffffffffffffffffffffffffffffffffffffff16635c11d7958888888830896040518763ffffffff1660e01b81526004016123a096959493929190613943565b600060405180830381600087803b1580156123ba57600080fd5b505af11580156123ce573d6000803e3d6000fd5b50505050600085856001888890506123e69190613ca4565b81811061241c577f4e487b7100000000000000000000000000000000000000000000000000000000600052603260045260246000fd5b90506020020160208101906124319190612abc565b90508073ffffffffffffffffffffffffffffffffffffffff1663095ea7b3609760009054906101000a900473ffffffffffffffffffffffffffffffffffffffff16896040518363ffffffff1660e01b81526004016124909291906136ac565b602060405180830381600087803b1580156124aa57600080fd5b505af11580156124be573d6000803e3d6000fd5b505050506040513d601f19601f820116820180604052508101906124e29190613134565b50609760009054906101000a900473ffffffffffffffffffffffffffffffffffffffff1673ffffffffffffffffffffffffffffffffffffffff1663ad934283828986868f6040518663ffffffff1660e01b81526004016125469594939291906136d5565b602060405180830381600087803b15801561256057600080fd5b505af1158015612574573d6000803e3d6000fd5b505050506040513d601f19601f82011682018060405250810190612598919061315d565b5050505050505050505050565b6000612607826040518060400160405280602081526020017f5361666545524332303a206c6f772d6c6576656c2063616c6c206661696c65648152508573ffffffffffffffffffffffffffffffffffffffff166127259092919063ffffffff16565b905060008151111561266757808060200190518101906126279190613134565b612666576040517f08c379a000000000000000000000000000000000000000000000000000000000815260040161265d906138e8565b60405180910390fd5b5b505050565b600060019054906101000a900460ff166126bb576040517f08c379a00000000000000000000000000000000000000000000000000000000081526004016126b2906138a8565b60405180910390fd5b6126cb6126c6611f85565b611f96565b565b600060019054906101000a900460ff1661271c576040517f08c379a0000000000000000000000000000000000000000000000000000000008152600401612713906138a8565b60405180910390fd5b60018081905550565b6060612734848460008561273d565b90509392505050565b606082471015612782576040517f08c379a000000000000000000000000000000000000000000000000000000000815260040161277990613828565b60405180910390fd5b6000808673ffffffffffffffffffffffffffffffffffffffff1685876040516127ab91906134f6565b60006040518083038185875af1925050503d80600081146127e8576040519150601f19603f3d011682016040523d82523d6000602084013e6127ed565b606091505b50915091506127fe8783838761280a565b92505050949350505050565b6060831561286d576000835114156128655761282585612288565b612864576040517f08c379a000000000000000000000000000000000000000000000000000000000815260040161285b90613888565b60405180910390fd5b5b829050612878565b6128778383612880565b5b949350505050565b6000825111156128935781518083602001fd5b806040517f08c379a00000000000000000000000000000000000000000000000000000000081526004016128c791906137c6565b60405180910390fd5b60006128e36128de846139c4565b61399f565b9050828152602081018484840111156128fb57600080fd5b612906848285613dd3565b509392505050565b600061292161291c846139f5565b61399f565b90508281526020810184848401111561293957600080fd5b612944848285613dd3565b509392505050565b60008135905061295b8161416f565b92915050565b6000815190506129708161416f565b92915050565b60008083601f84011261298857600080fd5b8235905067ffffffffffffffff8111156129a157600080fd5b6020830191508360208202830111156129b957600080fd5b9250929050565b6000815190506129cf81614186565b92915050565b6000813590506129e48161419d565b92915050565b600082601f8301126129fb57600080fd5b8135612a0b8482602086016128d0565b91505092915050565b600081359050612a23816141b4565b92915050565b600081519050612a38816141cb565b92915050565b600082601f830112612a4f57600080fd5b8135612a5f84826020860161290e565b91505092915050565b600081359050612a77816141e2565b92915050565b600081519050612a8c816141e2565b92915050565b600081519050612aa181614210565b92915050565b600081519050612ab6816141f9565b92915050565b600060208284031215612ace57600080fd5b6000612adc8482850161294c565b91505092915050565b600060208284031215612af757600080fd5b6000612b0584828501612961565b91505092915050565b60008060008060008060c08789031215612b2757600080fd5b6000612b3589828a0161294c565b9650506020612b4689828a0161294c565b9550506040612b5789828a0161294c565b9450506060612b6889828a01612a68565b9350506080612b7989828a016129d5565b92505060a087013567ffffffffffffffff811115612b9657600080fd5b612ba289828a016129ea565b9150509295509295509295565b600080600080600060a08688031215612bc757600080fd5b6000612bd58882890161294c565b9550506020612be68882890161294c565b9450506040612bf788828901612a68565b9350506060612c08888289016129d5565b925050608086013567ffffffffffffffff811115612c2557600080fd5b612c31888289016129ea565b9150509295509295909350565b60008060008060008060008060006101008a8c031215612c5d57600080fd5b6000612c6b8c828d0161294c565b9950506020612c7c8c828d0161294c565b9850506040612c8d8c828d01612a68565b9750506060612c9e8c828d01612a68565b96505060808a013567ffffffffffffffff811115612cbb57600080fd5b612cc78c828d01612976565b955095505060a0612cda8c828d01612a68565b93505060c0612ceb8c828d016129d5565b92505060e08a013567ffffffffffffffff811115612d0857600080fd5b612d148c828d016129ea565b9150509295985092959850929598565b60008060408385031215612d3757600080fd5b6000612d458582860161294c565b9250506020612d5685828601612a14565b9150509250929050565b60008060008060008060008060e0898b031215612d7c57600080fd5b6000612d8a8b828c0161294c565b9850506020612d9b8b828c01612a68565b975050604089013567ffffffffffffffff811115612db857600080fd5b612dc48b828c01612976565b96509650506060612dd78b828c01612a68565b9450506080612de88b828c01612a68565b93505060a0612df98b828c0161294c565b92505060c0612e0a8b828c0161294c565b9150509295985092959890939650565b600080600080600060a08688031215612e3257600080fd5b6000612e408882890161294c565b9550506020612e5188828901612a68565b945050604086013567ffffffffffffffff811115612e6e57600080fd5b612e7a88828901612a3e565b935050606086013567ffffffffffffffff811115612e9757600080fd5b612ea388828901612a3e565b925050608086013567ffffffffffffffff811115612ec057600080fd5b612ecc88828901612a3e565b9150509295509295909350565b600080600080600060a08688031215612ef157600080fd5b6000612eff8882890161294c565b9550506020612f1088828901612a68565b9450506040612f2188828901612a68565b9350506060612f328882890161294c565b9250506080612f438882890161294c565b9150509295509295909350565b60008060008060008060008060006101008a8c031215612f6f57600080fd5b6000612f7d8c828d0161294c565b9950506020612f8e8c828d01612a68565b9850506040612f9f8c828d01612a68565b97505060608a013567ffffffffffffffff811115612fbc57600080fd5b612fc88c828d01612976565b96509650506080612fdb8c828d01612a68565b94505060a08a013567ffffffffffffffff811115612ff857600080fd5b6130048c828d01612a3e565b93505060c08a013567ffffffffffffffff81111561302157600080fd5b61302d8c828d01612a3e565b92505060e08a013567ffffffffffffffff81111561304a57600080fd5b6130568c828d01612a3e565b9150509295985092959850929598565b60008060008060008060008060006101008a8c03121561308557600080fd5b60006130938c828d0161294c565b99505060206130a48c828d01612a68565b98505060406130b58c828d01612a68565b97505060608a013567ffffffffffffffff8111156130d257600080fd5b6130de8c828d01612976565b965096505060806130f18c828d01612a68565b94505060a06131028c828d01612a68565b93505060c06131138c828d0161294c565b92505060e06131248c828d0161294c565b9150509295985092959850929598565b60006020828403121561314657600080fd5b6000613154848285016129c0565b91505092915050565b60006020828403121561316f57600080fd5b600061317d84828501612a7d565b91505092915050565b600080600080600060a0868803121561319e57600080fd5b60006131ac88828901612a92565b95505060206131bd88828901612a29565b94505060406131ce88828901612a7d565b93505060606131df88828901612a7d565b92505060806131f088828901612a92565b9150509295509295909350565b60006020828403121561320f57600080fd5b600061321d84828501612aa7565b91505092915050565b6000613232838361323e565b60208301905092915050565b61324781613d0c565b82525050565b61325681613d0c565b82525050565b60006132688385613a53565b935061327382613a26565b8060005b858110156132ac576132898284613a91565b6132938882613226565b975061329e83613a46565b925050600181019050613277565b5085925050509392505050565b6132c281613d2a565b82525050565b60006132d382613a30565b6132dd8185613a64565b93506132ed818560208601613de2565b6132f681613ed3565b840191505092915050565b600061330c82613a30565b6133168185613a75565b9350613326818560208601613de2565b80840191505092915050565b61333b81613d9d565b82525050565b61334a81613dc1565b82525050565b600061335b82613a3b565b6133658185613a80565b9350613375818560208601613de2565b61337e81613ed3565b840191505092915050565b6000613396602683613a80565b91506133a182613ef1565b604082019050919050565b60006133b9602d83613a80565b91506133c482613f40565b604082019050919050565b60006133dc602683613a80565b91506133e782613f8f565b604082019050919050565b60006133ff602e83613a80565b915061340a82613fde565b604082019050919050565b6000613422602083613a80565b915061342d8261402d565b602082019050919050565b6000613445601d83613a80565b915061345082614056565b602082019050919050565b6000613468602b83613a80565b91506134738261407f565b604082019050919050565b600061348b601283613a80565b9150613496826140ce565b602082019050919050565b60006134ae602a83613a80565b91506134b9826140f7565b604082019050919050565b60006134d1601f83613a80565b91506134dc82614146565b602082019050919050565b6134f081613d70565b82525050565b60006135028284613301565b915081905092915050565b6000602082019050613522600083018461324d565b92915050565b600060608201905061353d600083018661324d565b61354a602083018561324d565b61355760408301846134e7565b949350505050565b600060a082019050613574600083018861324d565b613581602083018761324d565b61358e60408301866134e7565b61359b60608301856132b9565b81810360808301526135ad81846132c8565b90509695505050505050565b600060e0820190506135ce600083018a61324d565b6135db602083018961324d565b6135e860408301886134e7565b6135f560608301876134e7565b61360260808301866134e7565b61360f60a083018561324d565b61361c60c083018461324d565b98975050505050505050565b600060e08201905061363d600083018a61324d565b818103602083015261364f8189613350565b905061365e60408301886134e7565b81810360608301526136708187613350565b905061367f60808301866134e7565b61368c60a083018561324d565b81810360c083015261369e8184613350565b905098975050505050505050565b60006040820190506136c1600083018561324d565b6136ce60208301846134e7565b9392505050565b600060a0820190506136ea600083018861324d565b6136f760208301876134e7565b81810360408301526137098186613350565b9050818103606083015261371d8185613350565b905081810360808301526137318184613350565b90509695505050505050565b600060a082019050613752600083018861324d565b61375f60208301876134e7565b61376c60408301866134e7565b613779606083018561324d565b613786608083018461324d565b9695505050505050565b60006020820190506137a56000830184613332565b92915050565b60006020820190506137c06000830184613341565b92915050565b600060208201905081810360008301526137e08184613350565b905092915050565b6000602082019050818103600083015261380181613389565b9050919050565b60006020820190508181036000830152613821816133ac565b9050919050565b60006020820190508181036000830152613841816133cf565b9050919050565b60006020820190508181036000830152613861816133f2565b9050919050565b6000602082019050818103600083015261388181613415565b9050919050565b600060208201905081810360008301526138a181613438565b9050919050565b600060208201905081810360008301526138c18161345b565b9050919050565b600060208201905081810360008301526138e18161347e565b9050919050565b60006020820190508181036000830152613901816134a1565b9050919050565b60006020820190508181036000830152613921816134c4565b9050919050565b600060208201905061393d60008301846134e7565b92915050565b600060a08201905061395860008301896134e7565b61396560208301886134e7565b818103604083015261397881868861325c565b9050613987606083018561324d565b61399460808301846134e7565b979650505050505050565b60006139a96139ba565b90506139b58282613e15565b919050565b6000604051905090565b600067ffffffffffffffff8211156139df576139de613ea4565b5b6139e882613ed3565b9050602081019050919050565b600067ffffffffffffffff821115613a1057613a0f613ea4565b5b613a1982613ed3565b9050602081019050919050565b6000819050919050565b600081519050919050565b600081519050919050565b6000602082019050919050565b600082825260208201905092915050565b600082825260208201905092915050565b600081905092915050565b600082825260208201905092915050565b6000613aa0602084018461294c565b905092915050565b6000613ab382613d70565b9150613abe83613d70565b925082613ace57613acd613e75565b5b828204905092915050565b6000808291508390505b6001851115613b2357808604811115613aff57613afe613e46565b5b6001851615613b0e5780820291505b8081029050613b1c85613ee4565b9450613ae3565b94509492505050565b6000613b3782613d70565b9150613b4283613d7a565b9250613b6f7fffffffffffffffffffffffffffffffffffffffffffffffffffffffffffffffff8484613b77565b905092915050565b600082613b875760019050613c43565b81613b955760009050613c43565b8160018114613bab5760028114613bb557613be4565b6001915050613c43565b60ff841115613bc757613bc6613e46565b5b8360020a915084821115613bde57613bdd613e46565b5b50613c43565b5060208310610133831016604e8410600b8410161715613c195782820a905083811115613c1457613c13613e46565b5b613c43565b613c268484846001613ad9565b92509050818404811115613c3d57613c3c613e46565b5b81810290505b9392505050565b6000613c5582613d70565b9150613c6083613d70565b9250817fffffffffffffffffffffffffffffffffffffffffffffffffffffffffffffffff0483118215151615613c9957613c98613e46565b5b828202905092915050565b6000613caf82613d70565b9150613cba83613d70565b925082821015613ccd57613ccc613e46565b5b828203905092915050565b6000613ce382613d7a565b9150613cee83613d7a565b925082821015613d0157613d00613e46565b5b828203905092915050565b6000613d1782613d50565b9050919050565b60008115159050919050565b6000819050919050565b6000613d3f82613d0c565b9050919050565b6000819050919050565b600073ffffffffffffffffffffffffffffffffffffffff82169050919050565b6000819050919050565b600060ff82169050919050565b600069ffffffffffffffffffff82169050919050565b6000613da882613daf565b9050919050565b6000613dba82613d50565b9050919050565b6000613dcc82613d7a565b9050919050565b82818337600083830152505050565b60005b83811015613e00578082015181840152602081019050613de5565b83811115613e0f576000848401525b50505050565b613e1e82613ed3565b810181811067ffffffffffffffff82111715613e3d57613e3c613ea4565b5b80604052505050565b7f4e487b7100000000000000000000000000000000000000000000000000000000600052601160045260246000fd5b7f4e487b7100000000000000000000000000000000000000000000000000000000600052601260045260246000fd5b7f4e487b7100000000000000000000000000000000000000000000000000000000600052604160045260246000fd5b6000601f19601f8301169050919050565b60008160011c9050919050565b7f4f776e61626c653a206e6577206f776e657220697320746865207a65726f206160008201527f6464726573730000000000000000000000000000000000000000000000000000602082015250565b7f53413a2061637475616c20616d6f756e74206c6172676572207468616e20747260008201527f616e7366657220616d6f756e7400000000000000000000000000000000000000602082015250565b7f416464726573733a20696e73756666696369656e742062616c616e636520666f60008201527f722063616c6c0000000000000000000000000000000000000000000000000000602082015250565b7f496e697469616c697a61626c653a20636f6e747261637420697320616c72656160008201527f647920696e697469616c697a6564000000000000000000000000000000000000602082015250565b7f4f776e61626c653a2063616c6c6572206973206e6f7420746865206f776e6572600082015250565b7f416464726573733a2063616c6c20746f206e6f6e2d636f6e7472616374000000600082015250565b7f496e697469616c697a61626c653a20636f6e7472616374206973206e6f74206960008201527f6e697469616c697a696e67000000000000000000000000000000000000000000602082015250565b7f42523a207061746820746f6f2073686f72740000000000000000000000000000600082015250565b7f5361666545524332303a204552433230206f7065726174696f6e20646964206e60008201527f6f74207375636365656400000000000000000000000000000000000000000000602082015250565b7f5265656e7472616e637947756172643a207265656e7472616e742063616c6c00600082015250565b61417881613d0c565b811461418357600080fd5b50565b61418f81613d1e565b811461419a57600080fd5b50565b6141a681613d2a565b81146141b157600080fd5b50565b6141bd81613d34565b81146141c857600080fd5b50565b6141d481613d46565b81146141df57600080fd5b50565b6141eb81613d70565b81146141f657600080fd5b50565b61420281613d7a565b811461420d57600080fd5b50565b61421981613d87565b811461422457600080fd5b5056fea26469706673582212200d768911433bfb66aed603f4b7c7a3977a7ed24cd5fddc6ba4a989cdfb0d34ad64736f6c63430008020033",
  "linkReferences": {},
  "deployedLinkReferences": {}
}